{
  "contractName": "DWDN",
  "abi": [
    {
      "inputs": [],
      "stateMutability": "nonpayable",
      "type": "constructor"
    },
    {
      "anonymous": false,
      "inputs": [
        {
          "indexed": false,
          "internalType": "uint256",
          "name": "i",
          "type": "uint256"
        }
      ],
      "name": "Print",
      "type": "event"
    },
    {
      "anonymous": false,
      "inputs": [
        {
          "indexed": false,
          "internalType": "string",
          "name": "s",
          "type": "string"
        }
      ],
      "name": "Print",
      "type": "event"
    },
    {
      "anonymous": false,
      "inputs": [
        {
          "indexed": false,
          "internalType": "string",
          "name": "s",
          "type": "string"
        },
        {
          "indexed": false,
          "internalType": "uint256",
          "name": "i",
          "type": "uint256"
        }
      ],
      "name": "Print",
      "type": "event"
    },
    {
      "inputs": [],
      "name": "_gasTransfer",
      "outputs": [
        {
          "internalType": "uint256",
          "name": "",
          "type": "uint256"
        }
      ],
      "stateMutability": "view",
      "type": "function",
      "constant": true
    },
    {
      "inputs": [],
      "name": "_lock",
      "outputs": [
        {
          "internalType": "bool",
          "name": "",
          "type": "bool"
        }
      ],
      "stateMutability": "view",
      "type": "function",
      "constant": true
    },
    {
      "inputs": [],
      "name": "_maxConnections",
      "outputs": [
        {
          "internalType": "uint256",
          "name": "",
          "type": "uint256"
        }
      ],
      "stateMutability": "view",
      "type": "function",
      "constant": true
    },
    {
      "inputs": [],
      "name": "_maxMemoryArray",
      "outputs": [
        {
          "internalType": "uint256",
          "name": "",
          "type": "uint256"
        }
      ],
      "stateMutability": "view",
      "type": "function",
      "constant": true
    },
    {
      "inputs": [],
      "name": "_maxWeiDistribution",
      "outputs": [
        {
          "internalType": "uint256",
          "name": "",
          "type": "uint256"
        }
      ],
      "stateMutability": "view",
      "type": "function",
      "constant": true
    },
    {
      "inputs": [],
      "name": "_minWeiDistribution",
      "outputs": [
        {
          "internalType": "uint256",
          "name": "",
          "type": "uint256"
        }
      ],
      "stateMutability": "view",
      "type": "function",
      "constant": true
    },
    {
      "inputs": [],
      "name": "getParameters",
      "outputs": [
        {
          "internalType": "uint256",
          "name": "",
          "type": "uint256"
        },
        {
          "internalType": "uint256",
          "name": "",
          "type": "uint256"
        },
        {
          "internalType": "uint256",
          "name": "",
          "type": "uint256"
        },
        {
          "internalType": "uint256",
          "name": "",
          "type": "uint256"
        },
        {
          "internalType": "uint256",
          "name": "",
          "type": "uint256"
        }
      ],
      "stateMutability": "view",
      "type": "function",
      "constant": true
    },
    {
      "inputs": [
        {
          "internalType": "uint256",
          "name": "gas",
          "type": "uint256"
        }
      ],
      "name": "changeGasValue",
      "outputs": [],
      "stateMutability": "nonpayable",
      "type": "function"
    },
    {
      "inputs": [
        {
          "internalType": "uint256",
          "name": "a",
          "type": "uint256"
        },
        {
          "internalType": "uint256",
          "name": "b",
          "type": "uint256"
        }
      ],
      "name": "max",
      "outputs": [
        {
          "internalType": "uint256",
          "name": "",
          "type": "uint256"
        }
      ],
      "stateMutability": "nonpayable",
      "type": "function"
    },
    {
      "inputs": [
        {
          "internalType": "uint256",
          "name": "a",
          "type": "uint256"
        },
        {
          "internalType": "uint256",
          "name": "b",
          "type": "uint256"
        }
      ],
      "name": "min",
      "outputs": [
        {
          "internalType": "uint256",
          "name": "",
          "type": "uint256"
        }
      ],
      "stateMutability": "nonpayable",
      "type": "function"
    },
    {
      "inputs": [],
      "name": "makeADonation",
      "outputs": [],
      "stateMutability": "payable",
      "type": "function",
      "payable": true
    },
    {
      "inputs": [
        {
          "internalType": "address",
          "name": "_address",
          "type": "address"
        }
      ],
      "name": "addUserToBlacklist",
      "outputs": [],
      "stateMutability": "nonpayable",
      "type": "function"
    },
    {
      "inputs": [
        {
          "internalType": "address",
          "name": "_address",
          "type": "address"
        }
      ],
      "name": "requestUserToJoinTheNetwork",
      "outputs": [],
      "stateMutability": "nonpayable",
      "type": "function"
    },
    {
      "inputs": [],
      "name": "destroy",
      "outputs": [],
      "stateMutability": "nonpayable",
      "type": "function"
    }
  ],
  "bytecode": "0x608060405234801561001057600080fd5b50336000806101000a81548173ffffffffffffffffffffffffffffffffffffffff021916908373ffffffffffffffffffffffffffffffffffffffff160217905550600460038190555066071afd498d000060018190555065b5e620f48000600281905550629896806004819055506000600660006101000a81548160ff021916908315150217905550610bb86005819055506001600760008060009054906101000a900473ffffffffffffffffffffffffffffffffffffffff1673ffffffffffffffffffffffffffffffffffffffff1673ffffffffffffffffffffffffffffffffffffffff16815260200190815260200160002060000160008060009054906101000a900473ffffffffffffffffffffffffffffffffffffffff1673ffffffffffffffffffffffffffffffffffffffff1673ffffffffffffffffffffffffffffffffffffffff16815260200190815260200160002081905550600760008060009054906101000a900473ffffffffffffffffffffffffffffffffffffffff1673ffffffffffffffffffffffffffffffffffffffff1673ffffffffffffffffffffffffffffffffffffffff16815260200190815260200160002060030160008154809291906101dd90610220565b9190505550610268565b7f4e487b7100000000000000000000000000000000000000000000000000000000600052601160045260246000fd5b6000819050919050565b600061022b82610216565b91507fffffffffffffffffffffffffffffffffffffffffffffffffffffffffffffffff820361025d5761025c6101e7565b5b600182019050919050565b6116ad806102776000396000f3fe6080604052600436106100dd5760003560e01c80636d5433e61161007f5780639c2e15d6116100595780639c2e15d61461027b578063a5ea11da146102a6578063be7eab14146102d5578063dec60aef14610300576100dd565b80636d5433e6146101ea5780637ae2b5c71461022757806383197ef014610264576100dd565b80634863e96d116100bb5780634863e96d146101615780634bd724ed1461018a57806367dc880e146101b55780636928ae03146101e0576100dd565b806301c2edac146100e2578063272d988a1461010b57806343d8dd4f14610136575b600080fd5b3480156100ee57600080fd5b506101096004803603810190610104919061104e565b610329565b005b34801561011757600080fd5b5061012061081a565b60405161012d9190611094565b60405180910390f35b34801561014257600080fd5b5061014b610820565b6040516101589190611094565b60405180910390f35b34801561016d57600080fd5b506101886004803603810190610183919061104e565b610826565b005b34801561019657600080fd5b5061019f6108ae565b6040516101ac91906110ca565b60405180910390f35b3480156101c157600080fd5b506101ca6108c1565b6040516101d79190611094565b60405180910390f35b6101e86108c7565b005b3480156101f657600080fd5b50610211600480360381019061020c9190611111565b610e24565b60405161021e9190611094565b60405180910390f35b34801561023357600080fd5b5061024e60048036038101906102499190611111565b610e3e565b60405161025b9190611094565b60405180910390f35b34801561027057600080fd5b50610279610e58565b005b34801561028757600080fd5b50610290610f1f565b60405161029d9190611094565b60405180910390f35b3480156102b257600080fd5b506102bb610f25565b6040516102cc959493929190611151565b60405180910390f35b3480156102e157600080fd5b506102ea610f4d565b6040516102f79190611094565b60405180910390f35b34801561030c57600080fd5b50610327600480360381019061032291906111a4565b610f53565b005b6001600760003373ffffffffffffffffffffffffffffffffffffffff1673ffffffffffffffffffffffffffffffffffffffff16815260200190815260200160002060000160003373ffffffffffffffffffffffffffffffffffffffff1673ffffffffffffffffffffffffffffffffffffffff16815260200190815260200160002054146103eb576040517f08c379a00000000000000000000000000000000000000000000000000000000081526004016103e290611254565b60405180910390fd5b6000600760003373ffffffffffffffffffffffffffffffffffffffff1673ffffffffffffffffffffffffffffffffffffffff16815260200190815260200160002060000160008373ffffffffffffffffffffffffffffffffffffffff1673ffffffffffffffffffffffffffffffffffffffff16815260200190815260200160002054146104ad576040517f08c379a00000000000000000000000000000000000000000000000000000000081526004016104a4906112e6565b60405180910390fd5b600354600760003373ffffffffffffffffffffffffffffffffffffffff1673ffffffffffffffffffffffffffffffffffffffff168152602001908152602001600020600301541115610534576040517f08c379a000000000000000000000000000000000000000000000000000000000815260040161052b90611378565b60405180910390fd5b6000600760008373ffffffffffffffffffffffffffffffffffffffff1673ffffffffffffffffffffffffffffffffffffffff16815260200190815260200160002060000160008373ffffffffffffffffffffffffffffffffffffffff1673ffffffffffffffffffffffffffffffffffffffff1681526020019081526020016000205403610699576001600760008373ffffffffffffffffffffffffffffffffffffffff1673ffffffffffffffffffffffffffffffffffffffff16815260200190815260200160002060000160008373ffffffffffffffffffffffffffffffffffffffff1673ffffffffffffffffffffffffffffffffffffffff16815260200190815260200160002081905550600760008273ffffffffffffffffffffffffffffffffffffffff1673ffffffffffffffffffffffffffffffffffffffff1681526020019081526020016000206003016000815480929190610693906113c7565b91905055505b6001600760003373ffffffffffffffffffffffffffffffffffffffff1673ffffffffffffffffffffffffffffffffffffffff16815260200190815260200160002060000160008373ffffffffffffffffffffffffffffffffffffffff1673ffffffffffffffffffffffffffffffffffffffff1681526020019081526020016000205050600760003373ffffffffffffffffffffffffffffffffffffffff1673ffffffffffffffffffffffffffffffffffffffff168152602001908152602001600020600201819080600181540180825580915050600190039060005260206000200160009091909190916101000a81548173ffffffffffffffffffffffffffffffffffffffff021916908373ffffffffffffffffffffffffffffffffffffffff160217905550600760003373ffffffffffffffffffffffffffffffffffffffff1673ffffffffffffffffffffffffffffffffffffffff1681526020019081526020016000206003016000815480929190610812906113c7565b919050555050565b60015481565b60055481565b6001600760003373ffffffffffffffffffffffffffffffffffffffff1673ffffffffffffffffffffffffffffffffffffffff16815260200190815260200160002060010160008373ffffffffffffffffffffffffffffffffffffffff1673ffffffffffffffffffffffffffffffffffffffff1681526020019081526020016000208190555050565b600660009054906101000a900460ff1681565b60035481565b600660009054906101000a900460ff1615610917576040517f08c379a000000000000000000000000000000000000000000000000000000000815260040161090e9061145b565b60405180910390fd5b600354600760003373ffffffffffffffffffffffffffffffffffffffff1673ffffffffffffffffffffffffffffffffffffffff168152602001908152602001600020600301541161099d576040517f08c379a0000000000000000000000000000000000000000000000000000000008152600401610994906114ed565b60405180910390fd5b6001600660006101000a81548160ff021916908315150217905550600034905060008060045467ffffffffffffffff8111156109dc576109db61150d565b5b604051908082528060200260200182016040528015610a0a5781602001602082028036833780820191505090505b5090503381600081518110610a2257610a2161153c565b5b602002602001019073ffffffffffffffffffffffffffffffffffffffff16908173ffffffffffffffffffffffffffffffffffffffff16815250506000805b600073ffffffffffffffffffffffffffffffffffffffff16838381518110610a8b57610a8a61153c565b5b602002602001015173ffffffffffffffffffffffffffffffffffffffff1614158015610ab8575060045481105b15610d83576000838381518110610ad257610ad161153c565b5b6020026020010151905060005b60076000868681518110610af657610af561153c565b5b602002602001015173ffffffffffffffffffffffffffffffffffffffff1673ffffffffffffffffffffffffffffffffffffffff16815260200190815260200160002060020180549050811015610d6e576000600760008473ffffffffffffffffffffffffffffffffffffffff1673ffffffffffffffffffffffffffffffffffffffff1681526020019081526020016000206002018281548110610b9c57610b9b61153c565b5b9060005260206000200160009054906101000a900473ffffffffffffffffffffffffffffffffffffffff1690506001600760008573ffffffffffffffffffffffffffffffffffffffff1673ffffffffffffffffffffffffffffffffffffffff16815260200190815260200160002060010160008373ffffffffffffffffffffffffffffffffffffffff1673ffffffffffffffffffffffffffffffffffffffff1681526020019081526020016000205403610c565750610d5d565b610c6d610c6589600154610e3e565b600254610e24565b96508688610c7b919061156b565b975060008173ffffffffffffffffffffffffffffffffffffffff168860055490604051610ca7906115d0565b600060405180830381858888f193505050503d8060008114610ce5576040519150601f19603f3d011682016040523d82523d6000602084013e610cea565b606091505b505090508480610cf9906113c7565b9550506004548510610d0c575050610d6e565b81878681518110610d2057610d1f61153c565b5b602002602001019073ffffffffffffffffffffffffffffffffffffffff16908173ffffffffffffffffffffffffffffffffffffffff168152505050505b80610d67906113c7565b9050610adf565b508280610d7a906113c7565b93505050610a60565b6002548510610e02576000803373ffffffffffffffffffffffffffffffffffffffff168760055490604051610db7906115d0565b600060405180830381858888f193505050503d8060008114610df5576040519150601f19603f3d011682016040523d82523d6000602084013e610dfa565b606091505b509150915050505b6000600660006101000a81548160ff0219169083151502179055505050505050565b600081831015610e345781610e36565b825b905092915050565b600081831115610e4e5781610e50565b825b905092915050565b60008054906101000a900473ffffffffffffffffffffffffffffffffffffffff1673ffffffffffffffffffffffffffffffffffffffff163373ffffffffffffffffffffffffffffffffffffffff1614610ee6576040517f08c379a0000000000000000000000000000000000000000000000000000000008152600401610edd90611657565b60405180910390fd5b60008054906101000a900473ffffffffffffffffffffffffffffffffffffffff1673ffffffffffffffffffffffffffffffffffffffff16ff5b60025481565b6000806000806000600354600154600254600454600554945094509450945094509091929394565b60045481565b60008054906101000a900473ffffffffffffffffffffffffffffffffffffffff1673ffffffffffffffffffffffffffffffffffffffff163373ffffffffffffffffffffffffffffffffffffffff1614610fe1576040517f08c379a0000000000000000000000000000000000000000000000000000000008152600401610fd890611657565b60405180910390fd5b8060058190555050565b600080fd5b600073ffffffffffffffffffffffffffffffffffffffff82169050919050565b600061101b82610ff0565b9050919050565b61102b81611010565b811461103657600080fd5b50565b60008135905061104881611022565b92915050565b60006020828403121561106457611063610feb565b5b600061107284828501611039565b91505092915050565b6000819050919050565b61108e8161107b565b82525050565b60006020820190506110a96000830184611085565b92915050565b60008115159050919050565b6110c4816110af565b82525050565b60006020820190506110df60008301846110bb565b92915050565b6110ee8161107b565b81146110f957600080fd5b50565b60008135905061110b816110e5565b92915050565b6000806040838503121561112857611127610feb565b5b6000611136858286016110fc565b9250506020611147858286016110fc565b9150509250929050565b600060a0820190506111666000830188611085565b6111736020830187611085565b6111806040830186611085565b61118d6060830185611085565b61119a6080830184611085565b9695505050505050565b6000602082840312156111ba576111b9610feb565b5b60006111c8848285016110fc565b91505092915050565b600082825260208201905092915050565b7f5468652075736572206973206e6f742070617274206f6620746865206e65747760008201527f6f726b0000000000000000000000000000000000000000000000000000000000602082015250565b600061123e6023836111d1565b9150611249826111e2565b604082019050919050565b6000602082019050818103600083015261126d81611231565b9050919050565b7f546865207573657220697320616c726561647920636f6e6e656374656420746f60008201527f207468697320706172656e740000000000000000000000000000000000000000602082015250565b60006112d0602c836111d1565b91506112db82611274565b604082019050919050565b600060208201905081810360008301526112ff816112c3565b9050919050565b7f5468652075736572207265616368656420746865206d6178696d756d206e756d60008201527f626572206f6620636f6e6e656374696f6e730000000000000000000000000000602082015250565b60006113626032836111d1565b915061136d82611306565b604082019050919050565b6000602082019050818103600083015261139181611355565b9050919050565b7f4e487b7100000000000000000000000000000000000000000000000000000000600052601160045260246000fd5b60006113d28261107b565b91507fffffffffffffffffffffffffffffffffffffffffffffffffffffffffffffffff820361140457611403611398565b5b600182019050919050565b7f5265656e7472616e637920646574656374656421000000000000000000000000600082015250565b60006114456014836111d1565b91506114508261140f565b602082019050919050565b6000602082019050818103600083015261147481611438565b9050919050565b7f54686520757365722068617320746f20616464206d6f726520636f6e6e65637460008201527f696f6e7320746f206d616b65206120646f6e6174696f6e000000000000000000602082015250565b60006114d76037836111d1565b91506114e28261147b565b604082019050919050565b60006020820190508181036000830152611506816114ca565b9050919050565b7f4e487b7100000000000000000000000000000000000000000000000000000000600052604160045260246000fd5b7f4e487b7100000000000000000000000000000000000000000000000000000000600052603260045260246000fd5b60006115768261107b565b91506115818361107b565b92508282101561159457611593611398565b5b828203905092915050565b600081905092915050565b50565b60006115ba60008361159f565b91506115c5826115aa565b600082019050919050565b60006115db826115ad565b9150819050919050565b7f4f6e6c7920746865206f776e65722063616e2063616c6c20746869732066756e60008201527f6374696f6e000000000000000000000000000000000000000000000000000000602082015250565b60006116416025836111d1565b915061164c826115e5565b604082019050919050565b6000602082019050818103600083015261167081611634565b905091905056fea26469706673582212200fc8599a9001125027f0b55ec26948c6811adb1478572fdd28b9b5a2f8e105be64736f6c634300080d0033",
  "immutableReferences": {},
  "source": "pragma solidity >=0.4.22 <0.9.0;\n\n\ncontract DWDN {\n  address _owner;\n\n  uint public _maxWeiDistribution;\n  uint public _minWeiDistribution;\n  uint public _maxConnections;\n  uint public _maxMemoryArray;\n  uint public _gasTransfer;\n\n  bool public _lock;\n\n  struct Network {\n    mapping(address => uint) _connectedUsersByAddress;\n    mapping(address => uint) _blackList;\n    address [] _addresses;\n    uint _sizeOfConnectedUsersByAddress;\n  }\n\n  mapping(address => Network) _network;\n\n  event Print(uint i);\n  event Print(string s);\n  event Print(string s, uint i);\n\n  constructor() {\n    _owner                  = msg.sender;\n    _maxConnections         = 4;\n    _maxWeiDistribution     = (10**15)*2;\n    _minWeiDistribution     = (10**14)*2;\n    _maxMemoryArray         = 10**7;\n    _lock                   = false;\n    _gasTransfer            = 3000;\n\n    //emit Print(_maxWeiDistribution);\n\n    _network[_owner]._connectedUsersByAddress[_owner] = 1;\n    _network[_owner]._sizeOfConnectedUsersByAddress++;\n  }\n\n\n  modifier onlyOwner {\n    require(msg.sender == _owner, \"Only the owner can call this function\");\n    _;\n  }\n\n\n  function getParameters() public view returns (uint,uint,uint,uint,uint) {\n    return(_maxConnections,_maxWeiDistribution,_minWeiDistribution,_maxMemoryArray,_gasTransfer);\n  }\n\n\n  function changeGasValue(uint gas) public onlyOwner {\n    _gasTransfer = gas;\n  }\n\n\n  function max(uint256 a, uint256 b) public returns (uint256){\n    return a >= b ? a : b;\n  }\n\n\n  function min(uint256 a, uint256 b) public returns (uint256){\n    return a <= b ? a : b;\n  }\n\n\n  function makeADonation() public payable {\n    require(!_lock, \"Reentrancy detected!\");\n    require(_network[msg.sender]._sizeOfConnectedUsersByAddress > _maxConnections, \"The user has to add more connections to make a donation\");\n\n    _lock = true;\n\n    uint _remainingAmount = msg.value;\n    uint _donationAmount;\n\n    address [] memory _childs = new address[](_maxMemoryArray);\n\n    _childs[0] = msg.sender;\n\n    uint currentChildLocation = 0;\n    uint _maxChildLocation    = 0;\n\n    while(_childs[currentChildLocation] != address(0) && _maxChildLocation <_maxMemoryArray) {\n\n      address _parent = _childs[currentChildLocation];\n\n      for(uint i = 0; i < _network[_childs[currentChildLocation]]._addresses.length; ++i) {\n\n        address _child  = _network[_parent]._addresses[i];\n\n        if(_network[_parent]._blackList[_child] == 1) {\n          continue;\n        }\n\n        _donationAmount  = max(min(_remainingAmount,_maxWeiDistribution),_minWeiDistribution);\n        _remainingAmount = _remainingAmount - _donationAmount;\n\n        (bool _success,)  = (_child).call{value: _donationAmount, gas: _gasTransfer}(\"\");\n\n        _maxChildLocation++;\n\n        if(_maxChildLocation >= _maxMemoryArray){\n          break;\n        }\n\n        _childs[_maxChildLocation] = _child;\n      }\n\n      currentChildLocation++;\n    }\n\n    if(_remainingAmount >= _minWeiDistribution){\n      (bool _success, bytes memory _memory)  = (msg.sender).call{value: _remainingAmount, gas: _gasTransfer}(\"\");\n    }\n\n    _lock = false;\n  }\n\n\n  function addUserToBlacklist(address _address) public {\n    _network[msg.sender]._blackList[_address] = 1;\n  }\n\n\n  function requestUserToJoinTheNetwork(address _address) public {\n    require(_network[msg.sender]._connectedUsersByAddress[msg.sender] == 1, \"The user is not part of the network\");\n    require(_network[msg.sender]._connectedUsersByAddress[_address] == 0, \"The user is already connected to this parent\");\n    require(_network[msg.sender]._sizeOfConnectedUsersByAddress <= _maxConnections, \"The user reached the maximum number of connections\");\n\n    if(_network[_address]._connectedUsersByAddress[_address] == 0){\n      _network[_address]._connectedUsersByAddress[_address] = 1;\n      _network[_address]._sizeOfConnectedUsersByAddress++;\n    }\n\n    _network[msg.sender]._connectedUsersByAddress[_address] == 1;\n    _network[msg.sender]._addresses.push(_address);\n    _network[msg.sender]._sizeOfConnectedUsersByAddress++;\n  }\n\n\n  function destroy() public onlyOwner {\n    selfdestruct(payable(_owner));\n  }\n}\n",
  "sourcePath": "/home/lucas/ChainSkills/Training/DWDN/contracts/DWDN.sol",
  "compiler": {
    "name": "solc",
    "version": "0.8.13+commit.abaa5c0e.Emscripten.clang"
  },
  "schemaVersion": "3.4.6",
  "updatedAt": "2022-04-04T14:06:50.967Z",
  "networkType": "ethereum",
  "devdoc": {
    "kind": "dev",
    "methods": {},
    "version": 1
  },
  "userdoc": {
    "kind": "user",
    "methods": {},
    "version": 1
  }
}