{
  "contractName": "DWDN",
  "abi": [
    {
      "inputs": [],
      "stateMutability": "nonpayable",
      "type": "constructor"
    },
    {
      "anonymous": false,
      "inputs": [
        {
          "indexed": false,
          "internalType": "uint256",
          "name": "i",
          "type": "uint256"
        }
      ],
      "name": "Print",
      "type": "event"
    },
    {
      "anonymous": false,
      "inputs": [
        {
          "indexed": false,
          "internalType": "string",
          "name": "s",
          "type": "string"
        }
      ],
      "name": "Print",
      "type": "event"
    },
    {
      "anonymous": false,
      "inputs": [
        {
          "indexed": false,
          "internalType": "string",
          "name": "s",
          "type": "string"
        },
        {
          "indexed": false,
          "internalType": "uint256",
          "name": "i",
          "type": "uint256"
        }
      ],
      "name": "Print",
      "type": "event"
    },
    {
      "inputs": [],
      "name": "_gasTransfer",
      "outputs": [
        {
          "internalType": "uint256",
          "name": "",
          "type": "uint256"
        }
      ],
      "stateMutability": "view",
      "type": "function",
      "constant": true
    },
    {
      "inputs": [],
      "name": "_lock",
      "outputs": [
        {
          "internalType": "bool",
          "name": "",
          "type": "bool"
        }
      ],
      "stateMutability": "view",
      "type": "function",
      "constant": true
    },
    {
      "inputs": [],
      "name": "_maxConnections",
      "outputs": [
        {
          "internalType": "uint256",
          "name": "",
          "type": "uint256"
        }
      ],
      "stateMutability": "view",
      "type": "function",
      "constant": true
    },
    {
      "inputs": [],
      "name": "_maxMemoryArray",
      "outputs": [
        {
          "internalType": "uint256",
          "name": "",
          "type": "uint256"
        }
      ],
      "stateMutability": "view",
      "type": "function",
      "constant": true
    },
    {
      "inputs": [],
      "name": "_maxWeiDistribution",
      "outputs": [
        {
          "internalType": "uint256",
          "name": "",
          "type": "uint256"
        }
      ],
      "stateMutability": "view",
      "type": "function",
      "constant": true
    },
    {
      "inputs": [],
      "name": "_minWeiDistribution",
      "outputs": [
        {
          "internalType": "uint256",
          "name": "",
          "type": "uint256"
        }
      ],
      "stateMutability": "view",
      "type": "function",
      "constant": true
    },
    {
      "inputs": [
        {
          "internalType": "address",
          "name": "",
          "type": "address"
        }
      ],
      "name": "_network",
      "outputs": [
        {
          "internalType": "uint256",
          "name": "_sizeOfConnectedUsersByAddress",
          "type": "uint256"
        }
      ],
      "stateMutability": "view",
      "type": "function",
      "constant": true
    },
    {
      "inputs": [],
      "name": "getParameters",
      "outputs": [
        {
          "internalType": "uint256",
          "name": "",
          "type": "uint256"
        },
        {
          "internalType": "uint256",
          "name": "",
          "type": "uint256"
        },
        {
          "internalType": "uint256",
          "name": "",
          "type": "uint256"
        },
        {
          "internalType": "uint256",
          "name": "",
          "type": "uint256"
        },
        {
          "internalType": "uint256",
          "name": "",
          "type": "uint256"
        }
      ],
      "stateMutability": "view",
      "type": "function",
      "constant": true
    },
    {
      "inputs": [
        {
          "internalType": "address",
          "name": "_address",
          "type": "address"
        }
      ],
      "name": "getVariables",
      "outputs": [
        {
          "internalType": "uint256",
          "name": "",
          "type": "uint256"
        },
        {
          "internalType": "uint256",
          "name": "",
          "type": "uint256"
        }
      ],
      "stateMutability": "view",
      "type": "function",
      "constant": true
    },
    {
      "inputs": [],
      "name": "getAddresses",
      "outputs": [
        {
          "internalType": "address[]",
          "name": "",
          "type": "address[]"
        }
      ],
      "stateMutability": "view",
      "type": "function",
      "constant": true
    },
    {
      "inputs": [
        {
          "internalType": "uint256",
          "name": "gas",
          "type": "uint256"
        }
      ],
      "name": "changeGasValue",
      "outputs": [],
      "stateMutability": "nonpayable",
      "type": "function"
    },
    {
      "inputs": [
        {
          "internalType": "uint256",
          "name": "maxMemory",
          "type": "uint256"
        }
      ],
      "name": "changeMaxMemory",
      "outputs": [],
      "stateMutability": "nonpayable",
      "type": "function"
    },
    {
      "inputs": [
        {
          "internalType": "uint256",
          "name": "a",
          "type": "uint256"
        },
        {
          "internalType": "uint256",
          "name": "b",
          "type": "uint256"
        }
      ],
      "name": "max",
      "outputs": [
        {
          "internalType": "uint256",
          "name": "",
          "type": "uint256"
        }
      ],
      "stateMutability": "pure",
      "type": "function",
      "constant": true
    },
    {
      "inputs": [
        {
          "internalType": "uint256",
          "name": "a",
          "type": "uint256"
        },
        {
          "internalType": "uint256",
          "name": "b",
          "type": "uint256"
        }
      ],
      "name": "min",
      "outputs": [
        {
          "internalType": "uint256",
          "name": "",
          "type": "uint256"
        }
      ],
      "stateMutability": "pure",
      "type": "function",
      "constant": true
    },
    {
      "inputs": [
        {
          "internalType": "address[]",
          "name": "arr",
          "type": "address[]"
        },
        {
          "internalType": "address",
          "name": "element",
          "type": "address"
        }
      ],
      "name": "arrayHasElement",
      "outputs": [
        {
          "internalType": "bool",
          "name": "",
          "type": "bool"
        }
      ],
      "stateMutability": "pure",
      "type": "function",
      "constant": true
    },
    {
      "inputs": [],
      "name": "makeADonation",
      "outputs": [],
      "stateMutability": "payable",
      "type": "function",
      "payable": true
    },
    {
      "inputs": [
        {
          "internalType": "address",
          "name": "_address",
          "type": "address"
        }
      ],
      "name": "addUserToBlacklist",
      "outputs": [],
      "stateMutability": "nonpayable",
      "type": "function"
    },
    {
      "inputs": [
        {
          "internalType": "address",
          "name": "_address",
          "type": "address"
        }
      ],
      "name": "requestUserToJoinTheNetwork",
      "outputs": [],
      "stateMutability": "nonpayable",
      "type": "function"
    },
    {
      "inputs": [],
      "name": "destroy",
      "outputs": [],
      "stateMutability": "nonpayable",
      "type": "function"
    }
  ],
  "bytecode": "0x60806040523480156200001157600080fd5b50336000806101000a81548173ffffffffffffffffffffffffffffffffffffffff021916908373ffffffffffffffffffffffffffffffffffffffff160217905550600460038190555066071afd498d000060018190555065b5e620f4800060028190555060646004819055506000600660006101000a81548160ff021916908315150217905550610bb86005819055506001600760008060009054906101000a900473ffffffffffffffffffffffffffffffffffffffff1673ffffffffffffffffffffffffffffffffffffffff1673ffffffffffffffffffffffffffffffffffffffff16815260200190815260200160002060000160008060009054906101000a900473ffffffffffffffffffffffffffffffffffffffff1673ffffffffffffffffffffffffffffffffffffffff1673ffffffffffffffffffffffffffffffffffffffff16815260200190815260200160002081905550600760008060009054906101000a900473ffffffffffffffffffffffffffffffffffffffff1673ffffffffffffffffffffffffffffffffffffffff1673ffffffffffffffffffffffffffffffffffffffff1681526020019081526020016000206003016000815480929190620001de9062000222565b91905055506200026f565b7f4e487b7100000000000000000000000000000000000000000000000000000000600052601160045260246000fd5b6000819050919050565b60006200022f8262000218565b91507fffffffffffffffffffffffffffffffffffffffffffffffffffffffffffffffff8203620002645762000263620001e9565b5b600182019050919050565b611ed2806200027f6000396000f3fe6080604052600436106101145760003560e01c80636d5433e6116100a0578063a39fac1211610064578063a39fac1214610395578063a5ea11da146103c0578063ba02ff5c146103ef578063be7eab1414610418578063dec60aef1461044357610114565b80636d5433e61461029c5780637ae2b5c7146102d95780638292f7be1461031657806383197ef0146103535780639c2e15d61461036a57610114565b80634863e96d116100e75780634863e96d146101d55780634bd724ed146101fe57806350b00eb31461022957806367dc880e146102675780636928ae031461029257610114565b806301c2edac14610119578063272d988a1461014257806343d8dd4f1461016d5780634467ea5b14610198575b600080fd5b34801561012557600080fd5b50610140600480360381019061013b9190611578565b61046c565b005b34801561014e57600080fd5b5061015761095f565b60405161016491906115be565b60405180910390f35b34801561017957600080fd5b50610182610965565b60405161018f91906115be565b60405180910390f35b3480156101a457600080fd5b506101bf60048036038101906101ba9190611578565b61096b565b6040516101cc91906115be565b60405180910390f35b3480156101e157600080fd5b506101fc60048036038101906101f79190611578565b610989565b005b34801561020a57600080fd5b50610213610a11565b60405161022091906115f4565b60405180910390f35b34801561023557600080fd5b50610250600480360381019061024b9190611578565b610a24565b60405161025e92919061160f565b60405180910390f35b34801561027357600080fd5b5061027c610af3565b60405161028991906115be565b60405180910390f35b61029a610af9565b005b3480156102a857600080fd5b506102c360048036038101906102be9190611664565b6110fc565b6040516102d091906115be565b60405180910390f35b3480156102e557600080fd5b5061030060048036038101906102fb9190611664565b611116565b60405161030d91906115be565b60405180910390f35b34801561032257600080fd5b5061033d600480360381019061033891906117fd565b611130565b60405161034a91906115f4565b60405180910390f35b34801561035f57600080fd5b5061036861120d565b005b34801561037657600080fd5b5061037f6112d4565b60405161038c91906115be565b60405180910390f35b3480156103a157600080fd5b506103aa6112da565b6040516103b79190611917565b60405180910390f35b3480156103cc57600080fd5b506103d56113a8565b6040516103e6959493929190611939565b60405180910390f35b3480156103fb57600080fd5b506104166004803603810190610411919061198c565b6113d0565b005b34801561042457600080fd5b5061042d611468565b60405161043a91906115be565b60405180910390f35b34801561044f57600080fd5b5061046a6004803603810190610465919061198c565b61146e565b005b6001600760003373ffffffffffffffffffffffffffffffffffffffff1673ffffffffffffffffffffffffffffffffffffffff16815260200190815260200160002060000160003373ffffffffffffffffffffffffffffffffffffffff1673ffffffffffffffffffffffffffffffffffffffff168152602001908152602001600020541461052e576040517f08c379a000000000000000000000000000000000000000000000000000000000815260040161052590611a3c565b60405180910390fd5b6000600760003373ffffffffffffffffffffffffffffffffffffffff1673ffffffffffffffffffffffffffffffffffffffff16815260200190815260200160002060000160008373ffffffffffffffffffffffffffffffffffffffff1673ffffffffffffffffffffffffffffffffffffffff16815260200190815260200160002054146105f0576040517f08c379a00000000000000000000000000000000000000000000000000000000081526004016105e790611ace565b60405180910390fd5b600354600760003373ffffffffffffffffffffffffffffffffffffffff1673ffffffffffffffffffffffffffffffffffffffff168152602001908152602001600020600301541115610677576040517f08c379a000000000000000000000000000000000000000000000000000000000815260040161066e90611b60565b60405180910390fd5b6000600760008373ffffffffffffffffffffffffffffffffffffffff1673ffffffffffffffffffffffffffffffffffffffff16815260200190815260200160002060000160008373ffffffffffffffffffffffffffffffffffffffff1673ffffffffffffffffffffffffffffffffffffffff16815260200190815260200160002054036107dc576001600760008373ffffffffffffffffffffffffffffffffffffffff1673ffffffffffffffffffffffffffffffffffffffff16815260200190815260200160002060000160008373ffffffffffffffffffffffffffffffffffffffff1673ffffffffffffffffffffffffffffffffffffffff16815260200190815260200160002081905550600760008273ffffffffffffffffffffffffffffffffffffffff1673ffffffffffffffffffffffffffffffffffffffff16815260200190815260200160002060030160008154809291906107d690611baf565b91905055505b6001600760003373ffffffffffffffffffffffffffffffffffffffff1673ffffffffffffffffffffffffffffffffffffffff16815260200190815260200160002060000160008373ffffffffffffffffffffffffffffffffffffffff1673ffffffffffffffffffffffffffffffffffffffff16815260200190815260200160002081905550600760003373ffffffffffffffffffffffffffffffffffffffff1673ffffffffffffffffffffffffffffffffffffffff168152602001908152602001600020600201819080600181540180825580915050600190039060005260206000200160009091909190916101000a81548173ffffffffffffffffffffffffffffffffffffffff021916908373ffffffffffffffffffffffffffffffffffffffff160217905550600760003373ffffffffffffffffffffffffffffffffffffffff1673ffffffffffffffffffffffffffffffffffffffff168152602001908152602001600020600301600081548092919061095790611baf565b919050555050565b60015481565b60055481565b60076020528060005260406000206000915090508060030154905081565b6001600760003373ffffffffffffffffffffffffffffffffffffffff1673ffffffffffffffffffffffffffffffffffffffff16815260200190815260200160002060010160008373ffffffffffffffffffffffffffffffffffffffff1673ffffffffffffffffffffffffffffffffffffffff1681526020019081526020016000208190555050565b600660009054906101000a900460ff1681565b600080600760003373ffffffffffffffffffffffffffffffffffffffff1673ffffffffffffffffffffffffffffffffffffffff16815260200190815260200160002060000160008473ffffffffffffffffffffffffffffffffffffffff1673ffffffffffffffffffffffffffffffffffffffff16815260200190815260200160002054600760003373ffffffffffffffffffffffffffffffffffffffff1673ffffffffffffffffffffffffffffffffffffffff1681526020019081526020016000206003015491509150915091565b60035481565b600660009054906101000a900460ff1615610b49576040517f08c379a0000000000000000000000000000000000000000000000000000000008152600401610b4090611c43565b60405180910390fd5b600354600760003373ffffffffffffffffffffffffffffffffffffffff1673ffffffffffffffffffffffffffffffffffffffff1681526020019081526020016000206003015411610bcf576040517f08c379a0000000000000000000000000000000000000000000000000000000008152600401610bc690611cd5565b60405180910390fd5b6001600660006101000a81548160ff02191690831515021790555060003490506000806000905060008060045467ffffffffffffffff811115610c1557610c146116ba565b5b604051908082528060200260200182016040528015610c435781602001602082028036833780820191505090505b5090503381600081518110610c5b57610c5a611cf5565b5b602002602001019073ffffffffffffffffffffffffffffffffffffffff16908173ffffffffffffffffffffffffffffffffffffffff16815250505b600073ffffffffffffffffffffffffffffffffffffffff16818481518110610cc157610cc0611cf5565b5b602002602001015173ffffffffffffffffffffffffffffffffffffffff1614158015610cee575060045482105b1561101e576000818481518110610d0857610d07611cf5565b5b6020026020010151905060005b60076000848781518110610d2c57610d2b611cf5565b5b602002602001015173ffffffffffffffffffffffffffffffffffffffff1673ffffffffffffffffffffffffffffffffffffffff16815260200190815260200160002060020180549050811015611009576000600760008473ffffffffffffffffffffffffffffffffffffffff1673ffffffffffffffffffffffffffffffffffffffff1681526020019081526020016000206002018281548110610dd257610dd1611cf5565b5b9060005260206000200160009054906101000a900473ffffffffffffffffffffffffffffffffffffffff1690506001600760008573ffffffffffffffffffffffffffffffffffffffff1673ffffffffffffffffffffffffffffffffffffffff16815260200190815260200160002060010160008373ffffffffffffffffffffffffffffffffffffffff1673ffffffffffffffffffffffffffffffffffffffff1681526020019081526020016000205403610e8c5750610ff8565b610e968482611130565b15610ea15750610ff8565b600254881015610eb15750611009565b610ec8610ec089600154611116565b6002546110fc565b96508688610ed69190611d24565b975060008173ffffffffffffffffffffffffffffffffffffffff168860055490604051610f0290611d89565b600060405180830381858888f193505050503d8060008114610f40576040519150601f19603f3d011682016040523d82523d6000602084013e610f45565b606091505b5050905080610f89576040517f08c379a0000000000000000000000000000000000000000000000000000000008152600401610f8090611dea565b60405180910390fd5b8580610f9490611baf565b9650506004548610610fa7575050611009565b81858781518110610fbb57610fba611cf5565b5b602002602001019073ffffffffffffffffffffffffffffffffffffffff16908173ffffffffffffffffffffffffffffffffffffffff168152505050505b8061100290611baf565b9050610d15565b50838061101590611baf565b94505050610c96565b60025485106110da5760003373ffffffffffffffffffffffffffffffffffffffff16866005549060405161105190611d89565b600060405180830381858888f193505050503d806000811461108f576040519150601f19603f3d011682016040523d82523d6000602084013e611094565b606091505b50509050806110d8576040517f08c379a00000000000000000000000000000000000000000000000000000000081526004016110cf90611dea565b60405180910390fd5b505b6000600660006101000a81548160ff0219169083151502179055505050505050565b60008183101561110c578161110e565b825b905092915050565b6000818311156111265781611128565b825b905092915050565b600080600090505b8351811015611201578273ffffffffffffffffffffffffffffffffffffffff1684828151811061116b5761116a611cf5565b5b602002602001015173ffffffffffffffffffffffffffffffffffffffff1603611198576001915050611207565b600073ffffffffffffffffffffffffffffffffffffffff168482815181106111c3576111c2611cf5565b5b602002602001015173ffffffffffffffffffffffffffffffffffffffff16036111f0576000915050611207565b806111fa90611baf565b9050611138565b50600090505b92915050565b60008054906101000a900473ffffffffffffffffffffffffffffffffffffffff1673ffffffffffffffffffffffffffffffffffffffff163373ffffffffffffffffffffffffffffffffffffffff161461129b576040517f08c379a000000000000000000000000000000000000000000000000000000000815260040161129290611e7c565b60405180910390fd5b60008054906101000a900473ffffffffffffffffffffffffffffffffffffffff1673ffffffffffffffffffffffffffffffffffffffff16ff5b60025481565b6060600760003373ffffffffffffffffffffffffffffffffffffffff1673ffffffffffffffffffffffffffffffffffffffff16815260200190815260200160002060020180548060200260200160405190810160405280929190818152602001828054801561139e57602002820191906000526020600020905b8160009054906101000a900473ffffffffffffffffffffffffffffffffffffffff1673ffffffffffffffffffffffffffffffffffffffff1681526020019060010190808311611354575b5050505050905090565b6000806000806000600354600154600254600454600554945094509450945094509091929394565b60008054906101000a900473ffffffffffffffffffffffffffffffffffffffff1673ffffffffffffffffffffffffffffffffffffffff163373ffffffffffffffffffffffffffffffffffffffff161461145e576040517f08c379a000000000000000000000000000000000000000000000000000000000815260040161145590611e7c565b60405180910390fd5b8060048190555050565b60045481565b60008054906101000a900473ffffffffffffffffffffffffffffffffffffffff1673ffffffffffffffffffffffffffffffffffffffff163373ffffffffffffffffffffffffffffffffffffffff16146114fc576040517f08c379a00000000000000000000000000000000000000000000000000000000081526004016114f390611e7c565b60405180910390fd5b8060058190555050565b6000604051905090565b600080fd5b600080fd5b600073ffffffffffffffffffffffffffffffffffffffff82169050919050565b60006115458261151a565b9050919050565b6115558161153a565b811461156057600080fd5b50565b6000813590506115728161154c565b92915050565b60006020828403121561158e5761158d611510565b5b600061159c84828501611563565b91505092915050565b6000819050919050565b6115b8816115a5565b82525050565b60006020820190506115d360008301846115af565b92915050565b60008115159050919050565b6115ee816115d9565b82525050565b600060208201905061160960008301846115e5565b92915050565b600060408201905061162460008301856115af565b61163160208301846115af565b9392505050565b611641816115a5565b811461164c57600080fd5b50565b60008135905061165e81611638565b92915050565b6000806040838503121561167b5761167a611510565b5b60006116898582860161164f565b925050602061169a8582860161164f565b9150509250929050565b600080fd5b6000601f19601f8301169050919050565b7f4e487b7100000000000000000000000000000000000000000000000000000000600052604160045260246000fd5b6116f2826116a9565b810181811067ffffffffffffffff82111715611711576117106116ba565b5b80604052505050565b6000611724611506565b905061173082826116e9565b919050565b600067ffffffffffffffff8211156117505761174f6116ba565b5b602082029050602081019050919050565b600080fd5b600061177961177484611735565b61171a565b9050808382526020820190506020840283018581111561179c5761179b611761565b5b835b818110156117c557806117b18882611563565b84526020840193505060208101905061179e565b5050509392505050565b600082601f8301126117e4576117e36116a4565b5b81356117f4848260208601611766565b91505092915050565b6000806040838503121561181457611813611510565b5b600083013567ffffffffffffffff81111561183257611831611515565b5b61183e858286016117cf565b925050602061184f85828601611563565b9150509250929050565b600081519050919050565b600082825260208201905092915050565b6000819050602082019050919050565b61188e8161153a565b82525050565b60006118a08383611885565b60208301905092915050565b6000602082019050919050565b60006118c482611859565b6118ce8185611864565b93506118d983611875565b8060005b8381101561190a5781516118f18882611894565b97506118fc836118ac565b9250506001810190506118dd565b5085935050505092915050565b6000602082019050818103600083015261193181846118b9565b905092915050565b600060a08201905061194e60008301886115af565b61195b60208301876115af565b61196860408301866115af565b61197560608301856115af565b61198260808301846115af565b9695505050505050565b6000602082840312156119a2576119a1611510565b5b60006119b08482850161164f565b91505092915050565b600082825260208201905092915050565b7f5468652075736572206973206e6f742070617274206f6620746865206e65747760008201527f6f726b0000000000000000000000000000000000000000000000000000000000602082015250565b6000611a266023836119b9565b9150611a31826119ca565b604082019050919050565b60006020820190508181036000830152611a5581611a19565b9050919050565b7f546865207573657220697320616c726561647920636f6e6e656374656420746f60008201527f207468697320706172656e740000000000000000000000000000000000000000602082015250565b6000611ab8602c836119b9565b9150611ac382611a5c565b604082019050919050565b60006020820190508181036000830152611ae781611aab565b9050919050565b7f5468652075736572207265616368656420746865206d6178696d756d206e756d60008201527f626572206f6620636f6e6e656374696f6e730000000000000000000000000000602082015250565b6000611b4a6032836119b9565b9150611b5582611aee565b604082019050919050565b60006020820190508181036000830152611b7981611b3d565b9050919050565b7f4e487b7100000000000000000000000000000000000000000000000000000000600052601160045260246000fd5b6000611bba826115a5565b91507fffffffffffffffffffffffffffffffffffffffffffffffffffffffffffffffff8203611bec57611beb611b80565b5b600182019050919050565b7f5265656e7472616e637920646574656374656421000000000000000000000000600082015250565b6000611c2d6014836119b9565b9150611c3882611bf7565b602082019050919050565b60006020820190508181036000830152611c5c81611c20565b9050919050565b7f54686520757365722068617320746f20616464206d6f726520636f6e6e65637460008201527f696f6e7320746f206d616b65206120646f6e6174696f6e000000000000000000602082015250565b6000611cbf6037836119b9565b9150611cca82611c63565b604082019050919050565b60006020820190508181036000830152611cee81611cb2565b9050919050565b7f4e487b7100000000000000000000000000000000000000000000000000000000600052603260045260246000fd5b6000611d2f826115a5565b9150611d3a836115a5565b925082821015611d4d57611d4c611b80565b5b828203905092915050565b600081905092915050565b50565b6000611d73600083611d58565b9150611d7e82611d63565b600082019050919050565b6000611d9482611d66565b9150819050919050565b7f5472616e73666572206661696c65640000000000000000000000000000000000600082015250565b6000611dd4600f836119b9565b9150611ddf82611d9e565b602082019050919050565b60006020820190508181036000830152611e0381611dc7565b9050919050565b7f4f6e6c7920746865206f776e65722063616e2063616c6c20746869732066756e60008201527f6374696f6e000000000000000000000000000000000000000000000000000000602082015250565b6000611e666025836119b9565b9150611e7182611e0a565b604082019050919050565b60006020820190508181036000830152611e9581611e59565b905091905056fea26469706673582212209da0fcecfeb513bd85424f194e07620208d0fa76ccec869e75553e91fb77a74b64736f6c634300080d0033",
  "immutableReferences": {},
  "source": "// SPDX-License-Identifier: MIT\npragma solidity >=0.4.22 <0.9.0;\n\n\n// Decentralized Wealth Distribution Network\ncontract DWDN {\n  address _owner;\n\n  uint public _maxWeiDistribution;\n  uint public _minWeiDistribution;\n  uint public _maxConnections;\n  uint public _maxMemoryArray;\n  uint public _gasTransfer;\n\n  bool public _lock;\n\n  struct Network {\n    mapping(address => uint) _connectedUsersByAddress;\n    mapping(address => uint) _blackList;\n    address [] _addresses;\n    uint _sizeOfConnectedUsersByAddress;\n  }\n\n  mapping(address => Network) public _network;\n\n  event Print(uint i);\n  event Print(string s);\n  event Print(string s, uint i);\n\n  constructor() {\n    _owner                  = msg.sender;\n    _maxConnections         = 4;\n    _maxWeiDistribution     = (10**15)*2;\n    _minWeiDistribution     = (10**14)*2;\n    _maxMemoryArray         = 100;\n    _lock                   = false;\n    _gasTransfer            = 3000;\n\n    //emit Print(_maxWeiDistribution);\n\n    _network[_owner]._connectedUsersByAddress[_owner] = 1;\n    _network[_owner]._sizeOfConnectedUsersByAddress++;\n  }\n\n\n  modifier onlyOwner {\n    require(msg.sender == _owner, \"Only the owner can call this function\");\n    _;\n  }\n\n\n  function getParameters() public view returns (uint,uint,uint,uint,uint) {\n    return(_maxConnections,_maxWeiDistribution,_minWeiDistribution,_maxMemoryArray,_gasTransfer);\n  }\n\n\n  function getVariables(address _address) public view returns (uint,uint) {\n    return(_network[msg.sender]._connectedUsersByAddress[_address],_network[msg.sender]._sizeOfConnectedUsersByAddress);\n  }\n\n  function getAddresses() public view returns (address [] memory) {\n    return(_network[msg.sender]._addresses);\n  }\n\n\n  function changeGasValue(uint gas) public onlyOwner {\n    _gasTransfer = gas;\n  }\n\n\n  function changeMaxMemory(uint maxMemory) public onlyOwner {\n    _maxMemoryArray = maxMemory;\n  }\n\n\n  function max(uint256 a, uint256 b) public pure returns (uint256) {\n    return a >= b ? a : b;\n  }\n\n\n  function min(uint256 a, uint256 b) public pure returns (uint256) {\n    return a <= b ? a : b;\n  }\n\n\n  function arrayHasElement(address [] memory arr, address element) public pure returns (bool) {\n    for(uint i = 0; i < arr.length; ++i) {\n      if(arr[i] == element) {\n        return true;\n      }\n      if(arr[i] == address(0)) {\n        return false;\n      }\n    }\n    return false;\n  }\n\n\n  function makeADonation() public payable {\n    require(!_lock, \"Reentrancy detected!\");\n    require(_network[msg.sender]._sizeOfConnectedUsersByAddress > _maxConnections, \"The user has to add more connections to make a donation\");\n\n    _lock = true;\n\n    uint _remainingAmount = msg.value;\n    uint _donationAmount;\n    uint _currentChildLocation = 0;\n    uint _maxChildLocation    = 0;\n\n    address [] memory _childs = new address[](_maxMemoryArray);\n\n    _childs[0] = msg.sender;\n\n    while(_childs[_currentChildLocation] != address(0) && _maxChildLocation <_maxMemoryArray) {\n      address _parent = _childs[_currentChildLocation];\n\n      for(uint i = 0; i < _network[_childs[_currentChildLocation]]._addresses.length; ++i) {\n        address _child  = _network[_parent]._addresses[i];\n\n        if(_network[_parent]._blackList[_child] == 1) {\n          continue;\n        }\n        if(arrayHasElement(_childs,_child)) {\n          continue;\n        }\n        if(_remainingAmount < _minWeiDistribution) {\n          break;\n        }\n\n        _donationAmount  = max(min(_remainingAmount,_maxWeiDistribution),_minWeiDistribution);\n        _remainingAmount = _remainingAmount - _donationAmount;\n\n        (bool success,) = _child.call{value: _donationAmount, gas: _gasTransfer}(\"\");\n        require(success,\"Transfer failed\");\n\n        _maxChildLocation++;\n\n        if(_maxChildLocation >= _maxMemoryArray) {\n          break;\n        }\n\n        _childs[_maxChildLocation] = _child;\n      }\n\n      _currentChildLocation++;\n    }\n\n    if(_remainingAmount >= _minWeiDistribution){\n      (bool success,) = msg.sender.call{value: _remainingAmount, gas: _gasTransfer}(\"\");\n      require(success,\"Transfer failed\");\n    }\n\n    _lock = false;\n  }\n\n\n  function addUserToBlacklist(address _address) public {\n    _network[msg.sender]._blackList[_address] = 1;\n  }\n\n\n  function requestUserToJoinTheNetwork(address _address) public {\n    require(_network[msg.sender]._connectedUsersByAddress[msg.sender] == 1, \"The user is not part of the network\");\n    require(_network[msg.sender]._connectedUsersByAddress[_address] == 0, \"The user is already connected to this parent\");\n    require(_network[msg.sender]._sizeOfConnectedUsersByAddress <= _maxConnections, \"The user reached the maximum number of connections\");\n\n    if(_network[_address]._connectedUsersByAddress[_address] == 0){\n      _network[_address]._connectedUsersByAddress[_address] = 1;\n      _network[_address]._sizeOfConnectedUsersByAddress++;\n    }\n\n    _network[msg.sender]._connectedUsersByAddress[_address] = 1;\n    _network[msg.sender]._addresses.push(_address);\n    _network[msg.sender]._sizeOfConnectedUsersByAddress++;\n  }\n\n\n  function destroy() public onlyOwner {\n    selfdestruct(payable(_owner));\n  }\n}\n",
  "sourcePath": "/home/lucas/ChainSkills/Training/DWDN/contracts/DWDN.sol",
  "compiler": {
    "name": "solc",
    "version": "0.8.13+commit.abaa5c0e.Emscripten.clang"
  },
  "schemaVersion": "3.4.6",
  "updatedAt": "2022-04-09T18:41:58.838Z",
  "networkType": "ethereum",
  "devdoc": {
    "kind": "dev",
    "methods": {},
    "version": 1
  },
  "userdoc": {
    "kind": "user",
    "methods": {},
    "version": 1
  }
}